:04000000020029329F
:01000B0032C2
:0100130032BA
:01001B0032B2
:030023000202DEF8
:05008200C20702002688
:030026000202E6ED
:2000870075FFDE75FFAD22758400758840758921758E18758DAF75840275C80475C90275B2
:2000A700CA8D75CB34227584007598702275840075C04175CFE922758400759A4075F80140
:2000C700759D7C2275840F75E10475E3402275840F758C677EB87F0BEE24FFFCEF34FFFDF1
:2000E7008C068D07EC4D70F0E58C30E7FB7597012275A8902212008712008E1200AD1200AF
:20010700B41200BE1200CB1200D51200F822AE82AF835389FC4389018E048F051EBEFF015B
:200127001FEC4D6011C28CC28D758A58758C9ED28C208DE480FB22AE82AF83C28CC28D537E
:2001470089FC438902758AE7758CE7D28C8E048F051EBEFF011FEC4D6005108DF080FB2230
:20016700D2A3A20192A0A201B392A1A20092A200000000D2A4000000000000000075840F51
:2001870085C88275840000000000C2A400000000000000000000000022AF82C200A20392DE
:2001A70001C007120167E582D00720E7EEC2A3A20392A0A203B392A1A20292A275840F8F8D
:2001C700C875840000000000D2A4000000000000000000000000C2A475840F75C8FF75843E
:2001E70000D2A300000000000000000000000022C2A4D2A5D2A0D2A175840F75C8FF758462
:2002070000C200C201120167E58220E4F4C200D201120167E58220E4F4C202C20375823F4C
:200227001201A0C202D20375823F1201A0C202C2037582401201A0C202C2037582B81201C4
:20024700A0C202C2037582C01201A0C202D2037582401201A0C202D2037582B81201A0C2C4
:2002670002D2037582C01201A022AF8253073F74404FF582C202A20492031201A022AF82CB
:2002870053070774B84FF582C202A20592031201A0227F00A20692058F82C007120285A25E
:2002A700069204758200120271D0077E00D202A2069203758200C007C0061201A0D006D0DC
:2002C700070EBE400040E60FBF080040C72285829910990280FB22309804D207C2983212B4
:2002E70000FC75840053C0BF43C04010070280FBAF99BF6102800DBF6202804CBF6D0280C5
:200307004B0203927469C0E0740AC0E01203A515811581AE907F00C006C0077482C0E0741F
:200327000AC0E01203A5E58124FCF5819001F412011510070280DC748DC0E0740AC0E01263
:2003470003A51581158180A3B287809F748FC0E0740AC0E01203A5158115817493C0E07485
:200367000AC0E01203A5158115817499C0E0740AC0E01203A51581158174A4C0E0740AC03F
:1E038700E01203A5158115810202F274B6C0E0740AC0E01203A5158115810202F222B6
:20088900000000000000005F00000007000700147F147F14242A7F2A12231308646236491C
:2008A9005522500005030000001C2241000041221C00082A1C2A0808083E08080050300004
:2008C900000808080808003030000020100804023E5149453E00427F400042615149462149
:2008E90041454B311814127F1027454545393C4A4949300171090503364949493606494947
:20090900291E003636000000563600000008142241141414141441221408000201510906CA
:20092900324979413E7E1111117E7F494949363E414141227F4141221C7F494949417F09F7
:200949000901013E414151327F0808087F00417F41002040413F017F081422417F4040400B
:20096900407F0204027F7F0408107F3E4141413E7F090909063E4151215E7F09192946468A
:200989004949493101017F01013F4040403F1F2040201F7F2018207F6314081463030478F8
:2009A9000403615149454300007F4141020408102041417F00000402010204404040404017
:2009C900000102040020545454787F484444383844444420384444487F3854545418087E6F
:2009E900090102081454543C7F0804047800447D40002040443D00007F10284400417F40FE
:200A0900007C041804787C0804047838444444387C14141408081414187C7C080404084819
:200A290054545420043F4440203C4040207C1C2040201C3C4030403C44281028440C5050DE
:200A4900503C4464544C44000836410000007F0000004136080008082A1C08081C2A08083C
:200A69005175616C71756572207465636C612070726120736169720A005031203D20253362
:200A890075200D000A000A0A0A004D454E550A0061202D204C652050310A0062202D204902
:160AA9006E76657274652050305F370A0064656661756C740A0074
:2003A500C00E85810EE50E24FDF8868318868218E493A3B42577C208C209C20AC20BC20CA3
:2003C500C20D79087700C20EE493A324C64017240A50157005B50802D20DD20CFAE775F05C
:2003E5000AA42AF780E2240A2430B46C04D20880D7B46804D20980D0B4730302043DB46420
:2004050006120717020499B475061207170204B9B4630518E6188017B47803020478B46654
:20042500030205CDB42E0679097700809B60061208090203B5020823C083C08286F01886DB
:200445008318868218300C19C20DC082C0831208696007A31508E50870F41207F4D083D008
:20046500821208696006A312080980F5D082D0830203B512049020090C12049030080612A1
:20048500049012049012081B0203B5E61207F9E6180207FAED30E71CD20BE9F42401F9201D
:2004A5000912EAF43400FA30080AEBF43400FBECF43400FC200910300808EB7024EC70213B
:2004C500C208EA701CD209E97017200E14300C09E508600515081207F474301208090203BD
:2004E500B5C082C083120731300C60790A30081DEB54F0703619EB540F703019EA54F0706C
:200505002A19EA540F702419EF54F0701E790520090BEF540F701419EE54F0700E7903EE1D
:20052500540F700719ED54F0700119E508A20B994019F508C003C002C007C006C00512078F
:20054500F4D005D006D007D002D003300B19C003C002C007C006C005742D120809D005D0E7
:2005650006D007D002D00320094030082CC005C006C0078A82EBF5831207F9E5831207FAD9
:20058500E5821207F9E5821207FAD0E0F5821207F9E582D083D08280058D828E83EF120771
:2005A500FAE5831207F9E58380038D82EE1207FAE5821207F9E5821207FA12081BD083D07C
:2005C50082300E01220203B5300C0EE508D39509F50850287508008023E6547FFA188603E8
:2005E50008AE82AF83900C8B7D07E4932BA3E4933A5003A3DDF48D098E828F83C000120694
:20060500F9C082C083EFB47E02801940112482FDC3EA33FAEB33FBEC33FCDDF48006F4242A
:200625007F12082675F01BE4F8FFFEFD900C1FE933F9EA33FAEB33FBEC33FC5017E4932D7A
:20064500D4FD7401933ED4FE7402933FD4FF74039338D4F8A3A3A3A3D5F0D4E47C50FBFAB9
:20066500F9E509232354FC8883120826ED29D4F50DEE3AD4F50CEF3BD4F50BE5833CD4F559
:200685000A92D5D083D082D0001206F9C000C3749E9F5005D0000203CDC082120826D0825F
:2006A50030D50FE92401F9E43AFAE43BFBE43CFC40E2D20E1204B9200C0CE5096008120655
:2006C500E97003D509F4E5096015742E1208097800D20A08E81206E91207FAE8B509F4D0FD
:2006E500000203B514C31392D5240AF9E720D501C4540F22E618F9E618FC33E933920BFFC1
:200705006003430480E618FBE618FA7900C209D20822E6F9FD18200912AA01E6F918300870
:200725000AAC02AB01E6FA18E6F91822E975F06484FE740AC5F084C445F0FD30090122EA18
:20074500540FF9900ABF932DD4FDE94410933ED4FEEAC4540FF9900ADF932DD4FDE944101D
:20076500933ED4FEE94420933400D4FF20080122EB540FF9900B0F932DD4FDE94410933E0F
:20078500D4FEE94420933FD4FFE43400FAEBC4540FF9900B3F932DD4FDE94410933ED4FE28
:2007A500E94420933FD4FFE94430933AD4FAEC540FF9900B7F7B001207C7ECC4540FF990F1
:2007C5000BCF932DD4FDE94410933ED4FEE94420933FD4FFE94430933AD4FAE94440933BA4
:2007E500D4FB227420300D0274301208091508E50870F022C4540F7003300A19D20A249060
:20080500D43440D4C083C082C000F5821202D5D000D082D08322200AFC7430020809D00EC0
:0108250022B0
:200ABF000056126824803692480460167228844000020507101215172023252830333538FF
:200ADF00009692888480767268646056524844400040812263044586276809509132731474
:200AFF00000000010102020203030404040505060036720844801652882460963268044051
:200B1F00005510662176328742985308641975300006131926323945525865727885919895
:200B3F0000765228048056320884603612886440008571574328140086715743291400861A
:200B5F00000409141924293438434853586368720001020304050607080910111213141574
:200B7F0000163248648096122844607692082440007244168860320577492193653810826C
:200B9F0000775533108866442199775432108865001633506783001734506784011834519A
:200BBF000000000000000101010101010202020200561268248036924804601672288440AC
:200BDF000054096318722781369145005409631800438730741761044891357922660953CB
:200BFF000068360573421079471584522189582600020508101316182124262932343740CA
:200C1F00000000500000002500005012000025060050120300255601501278002506390094
:200C3F001253190056760900288804001444020007220100046100005230000026150000E8
:200C5F006307000081030000910100009500000048000000240000001200000006000000DC
:1A0C7F000300000001000000010000007DC5DDC334C2E0BE38BD86BBE4B90D
:06005800E478FFF6D8FD7C
:200826006040F82582500274FFF582E824F8501ECCCBCAF9E4CC24F85014CBCAF9E4CB24DA
:20084600F8500BCAF9E4CA24F8500379002224086010F8C3EC13FCEB13FBEA13FAE913F98D
:03086600D8F122A4
:200036007900E94400601B7A00900C99780175A200E493F2A308B8000205A2D9F4DAF275C7
:02005600A2FF07
:20005E007800E84400600A790175A200E4F309D8FC7800E84400600C7900900001E4F0A39E
:04007E00D8FCD9FAD7
:0D002900758121120885E582600302002622
:1C08690020F71430F6148883A88220F507E6A88375830022E280F7E49322E0229E
:040885007582002256
:00000001FF
