:03000000020006F5
:03005F0002000399
:030003000203CE27
:2000620075FFDE75FFAD22758400758E0875840075C80475C90A75CA1E75CBFB22758400B0
:2000820075E8802275840075D49C2275840075D1032275840F75E3402275840F758C677E4B
:2000A200B87F0BEE24FFFCEF34FFFD8C068D07EC4D70F0E58C30E7FB7597012275A8A02280
:2000C20012006212006912007F12008612008D12009412009B1200BE22AE82AF835389FCE8
:2000E2004389018E048F051EBEFF011FEC4D6011C28CC28D758A58758C9ED28C208DE48064
:20010200FB22AE82AF83C28CC28D5389FC438902758AE7758CE7D28C8E048F051EBEFF01ED
:200122001FEC4D6005108DF080FB22D2A3A20192A0A201B392A1A20092A200000000D2A4B7
:20014200000000000000000075840F85C88275840000000000C2A400000000000000000067
:2001620000000022AF82C200A2039201C00712012DE582D00720E7EEC2A3A20392A0A20315
:20018200B392A1A20292A275840F8FC875840000000000D2A40000000000000000000000D1
:2001A20000C2A475840F75C8FF75840000000000000000000000000022C2A4D2A5D2A0D257
:2001C200A175840F75C8FF758400C200C20112012DE58220E4F4C200D20112012DE58220BF
:2001E200E4F4C202C20375823F120166C202D20375823F120166C202C2037582401201666C
:20020200C202C2037582B8120166C202C2037582C0120166C202D203758240120166C20265
:20022200D2037582B8120166C202D2037582C012016622AF8253073F74404FF582C202A22A
:2002420004920312016622AF8253070774B84FF582C202A2059203120166227F00A2069290
:20026200058F82C007120249A2069204758200120235D0077E00D202A2069203758200C0A7
:2002820007C006120166D006D0070EBE400040E60FBF080040C722E582FF6030EF24F740F8
:2002A2002BEF14FEC2058E82C006120249C204758200120235D006D2058E82120249D20420
:2002C20075820012023575080002034B74F8250840047E0080027E017D008F037C00EB2419
:2002E200E0F510EC34FFF511900005C007C006C005120A48AB82AC83D005D006EB24FAFB9C
:20030200EC340BFCED2BF582E43CF583E493FCEE24FF9207D202A20792038C82C006C005C5
:20032200120166D005D006D0070DBD050040AB7F00D202A2079203758200C007120166D06E
:20034200070FBF030040EA050822AC82AD83AEF0FF741FC0E07485C0E0741BC0E07440C000
:20036200E08C828D838EF0EF120ACBA882A983AAF0FBE58124FCF581C000C001C002C0033C
:2003820090000075F0807445120901AC82AD83AEF0FFE58124FCF5818C828D838EF0EF127D
:2003A2000A65AE82AF838ED28FD3228582BB53BCF8E51042BCD2EC0020ECFDAFBF7E00AC6B
:2003C200BE7D00EC4EF582ED4FF583221200C27584001201BBC20612025DD20612025D75C7
:2003E20010007582011203ADAE82AF83C007C006C006C00774DAC0E0740DC0E0120480E52B
:200402008124FCF581D006D0078E828F83120A70AC82AD83AEF0FFC004C005C006C00790C7
:20042200851F75F01B7440120901AC82AD83AEF0FFE58124FCF581E4C0E0C0E07480C0E017
:200442007445C0E08C828D838EF0EF120ACBAC82AD83AEF0FFE58124FCF581C004C005C08F
:1E04620006C00774E8C0E0740DC0E0120480E58124FAF5819001F41200DB0203E12288
:200BFA00000000000000005F00000007000700147F147F14242A7F2A1223130864623649A8
:200C1A005522500005030000001C2241000041221C00082A1C2A0808083E0808005030008F
:200C3A00000808080808003030000020100804023E5149453E00427F4000426151494621D4
:200C5A0041454B311814127F1027454545393C4A49493001710905033649494936064949D2
:200C7A00291E00363600000056360000000814224114141414144122140800020151090656
:200C9A00324979413E7E1111117E7F494949363E414141227F4141221C7F494949417F0983
:200CBA000901013E414151327F0808087F00417F41002040413F017F081422417F40404097
:200CDA00407F0204027F7F0408107F3E4141413E7F090909063E4151215E7F091929464616
:200CFA004949493101017F01013F4040403F1F2040201F7F2018207F631408146303047884
:200D1A000403615149454300007F4141020408102041417F000004020102044040404040A2
:200D3A00000102040020545454787F484444383844444420384444487F3854545418087EFA
:200D5A00090102081454543C7F0804047800447D40002040443D00007F10284400417F4089
:200D7A00007C041804787C0804047838444444387C14141408081414187C7C0804040848A5
:200D9A0054545420043F4440203C4040207C1C2040201C3C4030403C44281028440C50506A
:200DBA00503C4464544C44000836410000007F0000004136080008082A1C08081C2A0808C8
:1D0DDA00022041444330203D202530347500042056696E203D2025332E3166560026
:20048000C00F85810FE50F24FDF8868318868218E493A3B42577C208C209C20AC20BC20CC4
:2004A000C20D79097700C20EE493A324C64017240A50157005B50902D20DD20CFAE775F07E
:2004C0000AA42AF780E2240A2430B46C04D20880D7B46804D20980D0B47303020518B46468
:2004E000061207F2020574B475061207F2020594B4630518E6188017B47803020553B4662F
:20050000030206A8B42E06790A7700809B60061208E40204900208FEC083C08286F0188690
:200520008318868218300C19C20DC082C083120B8E6007A31509E50970F41208CFD083D026
:2005400082120B8E6006A31208E480F5D082D08302049012056B20090C12056B300806122E
:20056000056B12056B1208F6020490E61208D4E6180208D5ED30E71CD20BE9F42401F9201A
:200580000912EAF43400FA30080AEBF43400FBECF43400FC200910300808EB7024EC70215F
:2005A000C208EA701CD209E97017200E14300C09E509600515091208CF74301208E4020427
:2005C00090C082C08312080C300C60790A30081DEB54F0703619EB540F703019EA54F070D9
:2005E0002A19EA540F702419EF54F0701E790520090BEF540F701419EE54F0700E7903EE42
:20060000540F700719ED54F0700119E509A20B994019F509C003C002C007C006C0051208B0
:20062000CFD005D006D007D002D003300B19C003C002C007C006C005742D1208E4D005D055
:2006400006D007D002D00320094030082CC005C006C0078A82EBF5831208D4E5831208D545
:20066000E5821208D4E5821208D5D0E0F5821208D4E582D083D08280058D828E83EF120800
:20068000D5E5831208D4E58380038D82EE1208D5E5821208D4E5821208D51208F6D083D07A
:2006A00082300E0122020490300C0EE509D3950AF50950287509008023E6547FFA1886032C
:2006C00008AE82AF83900FC37D07E4932BA3E4933A5003A3DDF48D0A8E828F83C00012077B
:2006E000D4C082C083EFB47E02801940112482FDC3EA33FAEB33FBEC33FCDDF48006F42474
:200700007F1209D275F01BE4F8FFFEFD900F57E933F9EA33FAEB33FBEC33FC5017E4932DB6
:20072000D4FD7401933ED4FE7402933FD4FF74039338D4F8A3A3A3A3D5F0D4E47C50FBFADD
:20074000F9E50A232354FC88831209D2ED29D4F50EEE3AD4F50DEF3BD4F50CE5833CD4F5CC
:200760000B92D5D083D082D0001207D4C000C3749E9F5005D0000204A8C0821209D2D0821D
:2007800030D50FE92401F9E43AFAE43BFBE43CFC40E2D20E120594200C0CE50A600812079B
:2007A000C47003D50AF4E50A6015742E1208E47800D20A08E81207C41208D5E8B50AF4D0B0
:2007C0000002049014C31392D5240BF9E720D501C4540F22E618F9E618FC33E933920BFF08
:2007E0006003430480E618FBE618FA7900C209D20822E6F9FD18200912AA01E6F918300895
:200800000AAC02AB01E6FA18E6F91822E975F06484FE740AC5F084C445F0FD30090122EA3C
:20082000540FF9900DF7932DD4FDE94410933ED4FEEAC4540FF9900E17932DD4FDE94410CA
:20084000933ED4FEE94420933400D4FF20080122EB540FF9900E47932DD4FDE94410933EF8
:20086000D4FEE94420933FD4FFE43400FAEBC4540FF9900E77932DD4FDE94410933ED4FE11
:20088000E94420933FD4FFE94430933AD4FAEC540FF9900EB77B001208A2ECC4540FF990FE
:2008A0000F07932DD4FDE94410933ED4FEE94420933FD4FFE94430933AD4FAE94440933B8C
:2008C000D4FB227420300D0274301208E41509E50970F022C4540F7003300A19D20A2490A7
:2008E000D43440D4C083C082C000F582120299D000D082D08322200AFC74300208E4D00F45
:0109000022D4
:200DF7000056126824803692480460167228844000020507101215172023252830333538C4
:200E1700009692888480767268646056524844400040812263044586276809509132731438
:200E3700000000010102020203030404040505060036720844801652882460963268044015
:200E570000551066217632874298530864197530000613192632394552586572788591985A
:200E77000076522804805632088460361288644000857157432814008671574329140086DF
:200E9700000409141924293438434853586368720001020304050607080910111213141539
:200EB700001632486480961228446076920824400072441688603205774921936538108231
:200ED70000775533108866442199775432108865001633506783001734506784011834515F
:200EF700000000000000010101010101020202020056126824803692480460167228844071
:200F170000540963187227813691450054096318004387307417610448913579226609538F
:200F370000683605734210794715845221895826000205081013161821242629323437408E
:200F5700000000500000002500005012000025060050120300255601501278002506390059
:200F77001253190056760900288804001444020007220100046100005230000026150000AD
:200F97006307000081030000910100009500000048000000240000001200000006000000A1
:1A0FB7000300000001000000010000007DC5DDC334C2E0BE38BD86BBE4B9D2
:200901001209A4BC0003020A9DEF60FA30D502B2D1E583B4FF03020AB3E582B4FF03020AD6
:20092100B3258340072482400B020A9D2483145003020AB3F582EA8DF0A4A8F0EA8EF0A487
:2009410028F8E435F0F9EB8DF0A428E935F0F9E433CA8FF0A429F9EA35F0FAEBF88EF0A405
:2009610029F9EA35F0FAE433FBEC8DF0A429F9EA35F0FAE43BFBE88FF0A42AFAEB35F0FBAD
:20098100E433CCFD8EF0A42AFAEB35F0FBE43CFCED8FF0A42BFBEC35F0FC20E703120A158B
:0309A100020A7CCB
:2009A400AA82AB83A2F73392D1F5826002D2F7ACF0E58124F9F8E6FD08E6FE0886F008E6B6
:0E09C400A2F73392D5F5836002D2F7AFF0228E
:06003500E478FFF6D8FD9F
:2009D2006040F82582500274FFF582E824F8501ECCCBCAF9E4CC24F85014CBCAF9E4CB242D
:2009F200F8500BCAF9E4CA24F8500379002224086010F8C3EC13FCEB13FBEA13FAE913F9E0
:030A1200D8F122F6
:200A15007804EC7011E58224F8500AF582E4C9CACBFCD8EF22EC7820058220E713D58201E0
:130A350022C3E933F9EA33FAEB33FBEC33FCD8EA158222EE
:200013007900E94400601B7A00900FD1780175A200E493F2A308B8000205A2D9F4DAF275AF
:02003300A2FF2A
:1D0A4800E5828510F0A4C582C0F08511F0A4D0F025F0C5838510F0A42583F5832258
:20003B007800E84400600A790175A200E4F309D8FC7800E84400600C7900900001E4F0A3C1
:04005B00D8FCD9FAFA
:0B0A65007F8E120BC3F58385F0822208
:0C0A7000E4AC83AB82FAF9748E020BB385
:200A7C00B98003EA13B34010EA2401FAE43BFBE43CFC50047C800582BC000EBB000BBA00BE
:200A9C0008E4F5F0F583F58222A2D1E582138CF092F78B838A8222E4F583F58275F080F47E
:0F0ABC00A2D11322E4F583F58275F0C0747F2276
:200ACB001209A430D502B2D1BF0009BC0003020AC0020AB3BC0003020A9DE583B4FF0BE53D
:200AEB0082B4FF03020AC0020A9DE582B4FF03020AB3C395835007247F400B020A9D2480F5
:200B0B00145003020AB3F582C3ED9AEE9BEF9C40111582C3EA33F9EB33FAEC33FBE433FCC9
:200B2B008005E4CCCBCAF9C08275F019C3E99DEA9EEB9FEC9400D5F002802D400EE99DF90B
:200B4B00EA9EFAEB9FFBEC9400FCC3B3E833F8E58233F582E58333F583C3E933F9EA33FA6B
:200B6B00EB33FBEC33FC80C4B3E4F938FAE43582FBE43583FCD082500405827C80120A15A8
:030B8B00020A94C7
:0D000600758121120BBDE58260030200032D
:1C0B8E0020F71430F6148883A88220F507E6A88375830022E280F7E49322E02276
:130BAA00FCABF0AA83A982749EC2D1F582120A15020A7C74
:040BBD00758200221B
:200BC1007F9E120BE830D103020A9DC3EF9582500974FFF5F0F583F5822279001209D289CB
:070BE100828A838BF0EC22F5
:120BE800AA82AB83A2F73392D1F5826002D2F7ACF02212
:00000001FF
