:03000000020006F5
:03005F0002000399
:030003000200CF29
:2000620075FFDE75FFAD22758400758E082275840F75A4FF75E3402275840F758C677EB843
:200082007F0BEE24FFFCEF34FFFD8C068D07EC4D70F0E58C30E7FB759701221200621200B1
:2000A2006912007012007A22AE82AF835389FC438901EE4F6016C28CC28D758A58758C9E58
:2000C200D28C308DFD1EBEFF011F80E62212009D758400D2809001F41200AAC2809001F481
:0600E2001200AA80EE22CC
:06003500E478FFF6D8FD9F
:200013007900E94400601B7A009000EC780175A200E493F2A308B8000205A2D9F4DAF275A3
:02003300A2FF2A
:20003B007800E84400600A790175A200E4F309D8FC7800E84400600C7900900001E4F0A3C1
:04005B00D8FCD9FAFA
:0D0006007581071200E8E582600302000327
:0400E80075820022FB
:00000001FF
