:03000000020006F5
:03005F0002000399
:0300030002010DEA
:2000620075FFDE75FFAD22758400758E082275840F75A4FF75A5FF75A6FF75A7FF75E340BD
:200082002275840F758C677EB87F0BEE24FFFCEF34FFFD8C068D07EC4D70F0E58C30E7FB9E
:2000A2007597012212006212006912007012008322E58275F004A4244FFE740135F0FF8EDB
:2000C200828F83E493F5808E828F83A3E493F5908E828F83A3A3E493F5A08E828F83A3A301
:2000E200A3E493F5B022AE82AF835389FC438901EE4F6016C28CC28D758A58758C9ED28C72
:20010200308DFD1EBEFF011F80E6221200A67584007E007F008E82C007C0061200B39001FF
:20012200F41200E8D006D0070EBE00010FC3EE942BEF940040DF7580FF7590FF75A0FF75B3
:09014200B0FF9001F41200E82264
:20014F00FF8181FF8482FF80F999999F999999FF1F1818FF9F9999F9FF9999F9010101FF33
:20016F00FF9999FF0F0909FF000024000040240018244281666666668142241802B1050644
:20018F007E81993EFF0909FFFF999966FF818181FF81817EFF999999FF090909FF8191F1EC
:2001AF00FF1818FF81FFFF81E080FF00FF244281FF808080FF0606FFFF0E1CFF7E81817E0E
:2001CF00FF09090FFF81C1FFFF3969CF4E99997203FFFF03FF8080FF7FC0C07FFF6060FF10
:1001EF00C33C3CC307FCFC07E1918987000000007A
:06003500E478FFF6D8FD9F
:200013007900E94400601B7A009001FF780175A200E493F2A308B8000205A2D9F4DAF2758F
:02003300A2FF2A
:20003B007800E84400600A790175A200E4F309D8FC7800E84400600C7900900001E4F0A3C1
:04005B00D8FCD9FAFA
:0D00060075810712014BE5826003020003C3
:04014B007582002297
:00000001FF
