:03000000020006F5
:03005F0002000399
:0300030002038D68
:2000620075FFDE75FFAD22758400758E082275840075D4802275840075D1032275840F75FE
:20008200E3402275840F758C677EB87F0BEE24FFFCEF34FFFD8C068D07EC4D70F0E58C305D
:2000A200E7FB7597012212006212006912007012007712007E12008522AE82AF835389FCB0
:2000C2004389018E048F051EBEFF011FEC4D6011C28CC28D758A58758C9ED28C208DE48084
:2000E200FB22AE82AF83C28CC28D5389FC438902758AE7758CE7D28C8E048F051EBEFF010E
:200102001FEC4D6005108DF080FB22D2A3A20192A0A201B392A1A20092A200000000D2A4D7
:20012200000000000000000075840F85C88275840000000000C2A400000000000000000087
:2001420000000022AF82C200A2039201C00712010DE582D00720E7EEC2A3A20392A0A20355
:20016200B392A1A20292A275840F8FC875840000000000D2A40000000000000000000000F1
:2001820000C2A475840F75C8FF75840000000000000000000000000022C2A4D2A5D2A0D277
:2001A200A175840F75C8FF758400C200C20112010DE58220E4F4C200D20112010DE582201F
:2001C200E4F4C202C20375823F120146C202D20375823F120146C202C203758240120146EC
:2001E200C202C2037582B8120146C202C2037582C0120146C202D203758240120146C202E6
:20020200D2037582B8120146C202D2037582C012014622AF8253073F74404FF582C202A28A
:2002220004920312014622AF8253070774B84FF582C202A2059203120146227F00A20692F0
:20024200058F82C007120229A2069204758200120215D0077E00D202A2069203758200C007
:2002620007C006120146D006D0070EBE400040E60FBF080040C722E582FF6030EF24F74038
:200282002BEF14FEC2058E82C006120229C204758200120215D006D2058E82120229D204A0
:2002A20075820012021575080002032B74F8250840047E0080027E017D008F037C00EB2479
:2002C200E0F510EC34FFF511900005C007C006C005120A45AB82AC83D005D006EB2494FB25
:2002E200EC340CFCED2BF582E43CF583E493FCEE24FF9207D202A20792038C82C006C005E5
:20030200120146D005D006D0070DBD050040AB7F00D202A2079203758200C007120146D0CE
:20032200070FBF030040EA050822AC82AD83AEF0FF741FC0E07485C0E0741BC0E07440C020
:20034200E08C828D838EF0EF120B78A882A983AAF0FBE58124FCF581C000C001C002C003AE
:2003620090000075F08074451208CEAC82AD83AEF0FFE58124FCF5818C828D838EF0EF12D1
:200382000B04AE82AF838ED28FD3221200A875840012019BC20612023DD20612023D7C00E7
:2003A2007D007E007F00C007C006C005C004C004C005C006C0077474C0E0740EC0E01204D5
:2003C2004DE58124FAF581D004D005D006D0078C828D838EF0EFC007C006C005C0041203C8
:2003E2002C9007D01200BBD004D005D006D007E4C0E0C0E0C0E0743FC0E08C828D838EF092
:20040200EF120A62AC82AD83AEF0FFE58124FCF581C007C006C005C004E4C0E0C0E0C0E09C
:200422007440C0E08C828D838EF0EF120A15E58124FCF581D004D005D006D007E58224FFCE
:0B044200920840030203A80203A0225E
:200C9400000000000000005F00000007000700147F147F14242A7F2A12231308646236490D
:200CB4005522500005030000001C2241000041221C00082A1C2A0808083E080800503000F5
:200CD400000808080808003030000020100804023E5149453E00427F40004261514946213A
:200CF40041454B311814127F1027454545393C4A4949300171090503364949493606494938
:200D1400291E003636000000563600000008142241141414141441221408000201510906BB
:200D3400324979413E7E1111117E7F494949363E414141227F4141221C7F494949417F09E8
:200D54000901013E414151327F0808087F00417F41002040413F017F081422417F404040FC
:200D7400407F0204027F7F0408107F3E4141413E7F090909063E4151215E7F09192946467B
:200D94004949493101017F01013F4040403F1F2040201F7F2018207F6314081463030478E9
:200DB4000403615149454300007F4141020408102041417F00000402010204404040404008
:200DD400000102040020545454787F484444383844444420384444487F3854545418087E60
:200DF400090102081454543C7F0804047800447D40002040443D00007F10284400417F40EF
:200E1400007C041804787C0804047838444444387C14141408081414187C7C08040408480A
:200E340054545420043F4440203C4040207C1C2040201C3C4030403C44281028440C5050CF
:200E5400503C4464544C44000836410000007F0000004136080008082A1C08081C2A08082D
:100E7400012044414330203D2025332E3166560065
:20044D00C00F85810FE50F24FDF8868318868218E493A3B42577C209C20AC20BC20CC20DF2
:20046D00C20E79097700C20FE493A324C64017240A50157005B50902D20ED20DFAE775F0AD
:20048D000AA42AF780E2240A2430B46C04D20980D7B46804D20A80D0B473030204E5B464CD
:2004AD00061207BF020541B475061207BF020561B4630518E6188017B47803020520B46661
:2004CD0003020675B42E06790A7700809B60061208B102045D0208CBC083C08286F0188690
:2004ED008318868218300D19C20EC082C083120C3B6007A31509E50970F412089CD083D0DD
:20050D0082120C3B6006A31208B180F5D082D08302045D120538200A0C120538300906127D
:20052D0005381205381208C302045DE61208A1E6180208A2ED30E71CD20CE9F42401F9207E
:20054D000A12EAF43400FA30090AEBF43400FBECF43400FC200A10300908EB7024EC70218E
:20056D00C209EA701CD20AE97017200F14300D09E5096005150912089C74301208B10204BC
:20058D005DC082C0831207D9300D60790A30091DEB54F0703619EB540F703019EA54F07071
:2005AD002A19EA540F702419EF54F0701E7905200A0BEF540F701419EE54F0700E7903EE74
:2005CD00540F700719ED54F0700119E509A20C994019F509C003C002C007C006C0051208E3
:2005ED009CD005D006D007D002D003300C19C003C002C007C006C005742D1208B1D005D0EE
:20060D0006D007D002D003200A4030092CC005C006C0078A82EBF5831208A1E5831208A2DC
:20062D00E5821208A1E5821208A2D0E0F5821208A1E582D083D08280058D828E83EF1208CC
:20064D00A2E5831208A1E58380038D82EE1208A2E5821208A1E5821208A21208C3D083D0DF
:20066D0082300F012202045D300D0EE509D3950AF50950287509008023E6547FFA18860390
:20068D0008AE82AF839010507D07E4932BA3E4933A5003A3DDF48D0A8E828F83C000120720
:2006AD00A1C082C083EFB47E02801940112482FDC3EA33FAEB33FBEC33FCDDF48006F424DA
:2006CD007F12099F75F01BE4F8FFFEFD900FE4E933F9EA33FAEB33FBEC33FC5017E4932D90
:2006ED00D4FD7401933ED4FE7402933FD4FF74039338D4F8A3A3A3A3D5F0D4E47C50FBFA11
:20070D00F9E50A232354FC888312099FED29D4F50EEE3AD4F50DEF3BD4F50CE5833CD4F532
:20072D000B92D5D083D082D0001207A1C000C3749E9F5005D000020475C08212099FD082E9
:20074D0030D50FE92401F9E43AFAE43BFBE43CFC40E2D20F120561200D0CE50A60081207FF
:20076D00917003D50AF4E50A6015742E1208B17800D20B08E81207911208A2E8B50AF4D0AE
:20078D000002045D14C31392D5240BF9E720D501C4540F22E618F9E618FC33E933920CFF6D
:2007AD006003430480E618FBE618FA7900C20AD20922E6F9FD18200A12AA01E6F9183009C4
:2007CD000AAC02AB01E6FA18E6F91822E975F06484FE740AC5F084C445F0FD300A0122EA6F
:2007ED00540FF9900E84932DD4FDE94410933ED4FEEAC4540FF9900EA4932DD4FDE94410E3
:20080D00933ED4FEE94420933400D4FF20090122EB540FF9900ED4932DD4FDE94410933E9D
:20082D00D4FEE94420933FD4FFE43400FAEBC4540FF9900F04932DD4FDE94410933ED4FEB6
:20084D00E94420933FD4FFE94430933AD4FAEC540FF9900F447B0012086FECC4540FF990D6
:20086D000F94932DD4FDE94410933ED4FEE94420933FD4FFE94430933AD4FAE94440933B32
:20088D00D4FB227420300E0274301208B11509E50970F022C4540F7003300B19D20B24900A
:2008AD00D43440D4C083C082C000F582120279D000D082D08322200BFC74300208B1D00FCA
:0108CD002208
:200E8400005612682480369248046016722884400002050710121517202325283033353836
:200EA4000096928884807672686460565248444000408122630445862768095091327314AB
:200EC400000000010102020203030404040505060036720844801652882460963268044088
:200EE4000055106621763287429853086419753000061319263239455258657278859198CD
:200F0400007652280480563208846036128864400085715743281400867157432914008651
:200F24000004091419242934384348535863687200010203040506070809101112131415AB
:200F44000016324864809612284460769208244000724416886032057749219365381082A3
:200F64000077553310886644219977543210886500163350678300173450678401183451D1
:200F84000000000000000101010101010202020200561268248036924804601672288440E3
:200FA400005409631872278136914500540963180043873074176104489135792266095302
:200FC400006836057342107947158452218958260002050810131618212426293234374001
:200FE4000000005000000025000050120000250600501203002556015012780025063900CC
:2010040012531900567609002888040014440200072201000461000052300000261500001F
:20102400630700008103000091010000950000004800000024000000120000000600000013
:1A1044000300000001000000010000007DC5DDC334C2E0BE38BD86BBE4B944
:2008CE00120971BC0003020B30EF60FA30D502B2D1E583B4FF03020B46E582B4FF03020B14
:2008EE0046258340072482400B020B302483145003020B46F582EA8DF0A4A8F0EA8EF0A400
:20090E0028F8E435F0F9EB8DF0A428E935F0F9E433CA8FF0A429F9EA35F0FAEBF88EF0A438
:20092E0029F9EA35F0FAE433FBEC8DF0A429F9EA35F0FAE43BFBE88FF0A42AFAEB35F0FBE0
:20094E00E433CCFD8EF0A42AFAEB35F0FBE43CFCED8FF0A42BFBEC35F0FC20E7031209E2F2
:03096E00020B0F6A
:20097100AA82AB83A2F73392D1F5826002D2F7ACF0E58124F9F8E6FD08E6FE0886F008E6E9
:0E099100A2F73392D5F5836002D2F7AFF022C1
:06003500E478FFF6D8FD9F
:20099F006040F82582500274FFF582E824F8501ECCCBCAF9E4CC24F85014CBCAF9E4CB2460
:2009BF00F8500BCAF9E4CA24F8500379002224086010F8C3EC13FCEB13FBEA13FAE913F913
:0309DF00D8F1222A
:2009E2007804EC7011E58224F8500AF582E4C9CACBFCD8EF22EC7820058220E713D5820114
:130A020022C3E933F9EA33FAEB33FBEC33FCD8EA15822221
:200013007900E94400601B7A0090105E780175A200E493F2A308B8000205A2D9F4DAF27521
:02003300A2FF2A
:200A1500FFA8811818120AD9D2D133E6400730E70B7582012220E70675820022C2D1120A60
:100A3500BBE97003F5822230D101B3E433F582229C
:1D0A4500E5828510F0A4C582C0F08511F0A4D0F025F0C5838510F0A42583F583225B
:20003B007800E84400600A790175A200E4F309D8FC7800E84400600C7900900001E4F0A3C1
:04005B00D8FCD9FAFA
:200A62001209717900E583B58202800D5003120B5EE583C3958212099FE5D0C465D020E1C8
:200A820017EA2DFAEB3EFBEC3FFC5009740112099FEC4480FC020B0FC3EA9DFAEB9EFBECDD
:190AA2009FFC500FC3E499F9E49AFAE49BFBE49CFCB2D11209E2020B0FFE
:200ABB007901AA82E68F82B5821318E6B5F00E18E6B5830918E68A82B58202790022B48032
:200ADB000FE5F0700AE5837006E58270027F00EFB6801518B6001018B6000B18B60006089A
:090AFB0008087600220808082210
:0B0B04007F8E120C5DF58385F08222CD
:200B0F00B98003EA13B34010EA2401FAE43BFBE43CFC50047C800582BC000EBB000BBA002A
:200B2F0008E4F5F0F583F58222A2D1E582138CF092F78B838A8222E4F583F58275F080F4EA
:0F0B4F00A2D11322E4F583F58275F0C0747F22E2
:1A0B5E00E582C583F582A2D133A2D592D11392D5ECCFFCEBCEFBEACDFA221F
:200B780012097130D502B2D1BF0009BC0003020B53020B46BC0003020B30E583B4FF0BE506
:200B980082B4FF03020B53020B30E582B4FF03020B46C395835007247F400B020B302480F7
:200BB800145003020B46F582C3ED9AEE9BEF9C40111582C3EA33F9EB33FAEC33FBE433FC88
:200BD8008005E4CCCBCAF9C08275F019C3E99DEA9EEB9FEC9400D5F002802D400EE99DF95E
:200BF800EA9EFAEB9FFBEC9400FCC3B3E833F8E58233F582E58333F583C3E933F9EA33FABE
:200C1800EB33FBEC33FC80C4B3E4F938FAE43582FBE43583FCD082500405827C801209E22E
:030C3800020B2785
:0D000600758121120C57E582600302000392
:1C0C3B0020F71430F6148883A88220F507E6A88375830022E280F7E49322E022C8
:040C57007582002280
:200C5B007F9E120C8230D103020B30C3EF9582500974FFF5F0F583F58222790012099F8934
:070C7B00828A838BF0EC225A
:120C8200AA82AB83A2F73392D1F5826002D2F7ACF02277
:00000001FF
