:04000000020029329F
:01000B0032C2
:0100130032BA
:01001B0032B2
:030023000202EEE8
:05008200C20702002688
:030026000202F6DD
:2000870075FFDE75FFAD22758400758840758921758E18758DAF75840275C80475C90275B2
:2000A700CA8D75CB342275840075D84075DA42227584007598702275840075C04175CFE9DF
:2000C70022758400759A4075F801759D7C2275840F75A48475E10C75E3402275840F758CC7
:2000E700677EB87F0BEE24FFFCEF34FFFD8C068D07EC4D70F0E58C30E7FB7597012275A818
:20010700802212008712008E1200AD1200B71200BE1200C81200D51200E212010522AE8286
:20012700AF835389FC4389018E048F051EBEFF011FEC4D6011C28CC28D758A58758C9ED2B1
:200147008C208DE480FB22AE82AF83C28CC28D5389FC438902758AE7758CE7D28C8E048FEC
:20016700051EBEFF011FEC4D6005108DF080FB22D2A3A20192A0A201B392A1A20092A20007
:20018700000000D2A4000000000000000075840F85C88275840000000000C2A400000000AC
:2001A700000000000000000022AF82C200A2039201C007120177E582D00720E7EEC2A3A260
:2001C7000392A0A203B392A1A20292A275840F8FC875840000000000D2A4000000000000B2
:2001E700000000000000C2A475840F75C8FF758400D2A300000000000000000000000022BE
:20020700C2A4D2A5D2A0D2A175840F75C8FF758400C200C201120177E58220E4F4C200D2D6
:2002270001120177E58220E4F4C202C20375823F1201B0C202D20375823F1201B0C202C233
:20024700037582401201B0C202C2037582B81201B0C202C2037582C01201B0C202D203758E
:2002670082401201B0C202D2037582B81201B0C202D2037582C01201B022AF8253073F7474
:20028700404FF582C202A20492031201B022AF8253070774B84FF582C202A20592031201D6
:2002A700B0227F00A20692058F82C007120295A2069204758200120281D0077E00D202A291
:2002C700069203758200C007C0061201B0D006D0070EBE400040E60FBF080040C722858250
:2002E7009910990280FB22309804D207C2983212010975840053C0BF43C04010070280FB27
:20030700AF99BF6102800FBF64028014BF69028017BF6D668016740125FC40DF15FC80DB1A
:20032700E5FC60D705FC80D3B28780CF7458C0E0740AC0E012039415811581745CC0E0747F
:200347000AC0E0120394158115817462C0E0740AC0E0120394158115817475C0E0740AC0E7
:20036700E0120394158115817490C0E0740AC0E01203941581158102030274ABC0E0740AE6
:0D038700C0E01203941581158102030222CB
:20087800000000000000005F00000007000700147F147F14242A7F2A12231308646236492D
:200898005522500005030000001C2241000041221C00082A1C2A0808083E08080050300015
:2008B800000808080808003030000020100804023E5149453E00427F40004261514946215A
:2008D80041454B311814127F1027454545393C4A4949300171090503364949493606494958
:2008F800291E003636000000563600000008142241141414141441221408000201510906DC
:20091800324979413E7E1111117E7F494949363E414141227F4141221C7F494949417F0908
:200938000901013E414151327F0808087F00417F41002040413F017F081422417F4040401C
:20095800407F0204027F7F0408107F3E4141413E7F090909063E4151215E7F09192946469B
:200978004949493101017F01013F4040403F1F2040201F7F2018207F631408146303047809
:200998000403615149454300007F4141020408102041417F00000402010204404040404028
:2009B800000102040020545454787F484444383844444420384444487F3854545418087E80
:2009D800090102081454543C7F0804047800447D40002040443D00007F10284400417F400F
:2009F800007C041804787C0804047838444444387C14141408081414187C7C08040408482B
:200A180054545420043F4440203C4040207C1C2040201C3C4030403C44281028440C5050EF
:200A3800503C4464544C44000836410000007F0000004136080008082A1C08081C2A08084D
:200A58000A0A0A004D454E550A0069202D20496E76657274652050305F372E0A0061202D52
:200A78002041756D656E74612052504D20646F206D6F746F722E0A0064202D2044696D6994
:1C0A98006E75692052504D20646F206D6F746F722E0A0064656661756C740A007C
:20039400C00E85810EE50E24FDF8868318868218E493A3B42577C208C209C20AC20BC20CB4
:2003B400C20D79087700C20EE493A324C64017240A50157005B50802D20DD20CFAE775F06D
:2003D4000AA42AF780E2240A2430B46C04D20880D7B46804D20980D0B4730302042CB46442
:2003F40006120706020488B475061207060204A8B4630518E6188017B47803020467B466BB
:20041400030205BCB42E0679097700809B60061207F80203A4020812C083C08286F0188631
:200434008318868218300C19C20DC082C0831208586007A31508E50870F41207E3D083D03B
:20045400821208586006A31207F880F5D082D0830203A412047F20090C12047F3008061208
:20047400047F12047F12080A0203A4E61207E8E6180207E9ED30E71CD20BE9F42401F92094
:200494000912EAF43400FA30080AEBF43400FBECF43400FC200910300808EB7024EC70214C
:2004B400C208EA701CD209E97017200E14300C09E508600515081207E374301207F80203F1
:2004D400A4C082C083120720300C60790A30081DEB54F0703619EB540F703019EA54F0709F
:2004F4002A19EA540F702419EF54F0701E790520090BEF540F701419EE54F0700E7903EE2F
:20051400540F700719ED54F0700119E508A20B994019F508C003C002C007C006C0051207A0
:20053400E3D005D006D007D002D003300B19C003C002C007C006C005742D1207F8D005D01B
:2005540006D007D002D00320094030082CC005C006C0078A82EBF5831207E8E5831207E90C
:20057400E5821207E8E5821207E9D0E0F5821207E8E582D083D08280058D828E83EF1207B5
:20059400E9E5831207E8E58380038D82EE1207E9E5821207E8E5821207E912080AD083D0F3
:2005B40082300E01220203A4300C0EE508D39509F50850287508008023E6547FFA1886030A
:2005D40008AE82AF83900C807D07E4932BA3E4933A5003A3DDF48D098E828F83C0001206B0
:2005F400E8C082C083EFB47E02801940112482FDC3EA33FAEB33FBEC33FCDDF48006F4244D
:200614007F12081575F01BE4F8FFFEFD900C14E933F9EA33FAEB33FBEC33FC5017E4932DA7
:20063400D4FD7401933ED4FE7402933FD4FF74039338D4F8A3A3A3A3D5F0D4E47C50FBFACA
:20065400F9E509232354FC8883120815ED29D4F50DEE3AD4F50CEF3BD4F50BE5833CD4F57B
:200674000A92D5D083D082D0001206E8C000C3749E9F5005D0000203BCC082120815D082A3
:2006940030D50FE92401F9E43AFAE43BFBE43CFC40E2D20E1204A8200C0CE5096008120677
:2006B400D87003D509F4E5096015742E1207F87800D20A08E81206D81207E9E8B509F4D053
:2006D400000203A414C31392D5240AF9E720D501C4540F22E618F9E618FC33E933920BFFE3
:2006F4006003430480E618FBE618FA7900C209D20822E6F9FD18200912AA01E6F918300882
:200714000AAC02AB01E6FA18E6F91822E975F06484FE740AC5F084C445F0FD30090122EA29
:20073400540FF9900AB4932DD4FDE94410933ED4FEEAC4540FF9900AD4932DD4FDE9441044
:20075400933ED4FEE94420933400D4FF20080122EB540FF9900B04932DD4FDE94410933E2B
:20077400D4FEE94420933FD4FFE43400FAEBC4540FF9900B34932DD4FDE94410933ED4FE44
:20079400E94420933FD4FFE94430933AD4FAEC540FF9900B747B001207B6ECC4540FF9901E
:2007B4000BC4932DD4FDE94410933ED4FEE94420933FD4FFE94430933AD4FAE94440933BC0
:2007D400D4FB227420300D0274301207F81508E50870F022C4540F7003300A19D20A249083
:2007F400D43440D4C083C082C000F5821202E5D000D082D08322200AFC74300207F8D00ED4
:0108140022C1
:200AB40000561268248036924804601672288440000205071012151720232528303335380A
:200AD40000969288848076726864605652484440004081226304458627680950913273147F
:200AF40000000001010202020303040404050506003672084480165288246096326804405C
:200B14000055106621763287429853086419753000061319263239455258657278859198A0
:200B3400007652280480563208846036128864400085715743281400867157432914008625
:200B540000040914192429343843485358636872000102030405060708091011121314157F
:200B7400001632486480961228446076920824400072441688603205774921936538108277
:200B94000077553310886644219977543210886500163350678300173450678401183451A5
:200BB4000000000000000101010101010202020200561268248036924804601672288440B7
:200BD4000054096318722781369145005409631800438730741761044891357922660953D6
:200BF4000068360573421079471584522189582600020508101316182124262932343740D5
:200C140000000050000000250000501200002506005012030025560150127800250639009F
:200C34001253190056760900288804001444020007220100046100005230000026150000F3
:200C54006307000081030000910100009500000048000000240000001200000006000000E7
:1A0C74000300000001000000010000007DC5DDC334C2E0BE38BD86BBE4B918
:06005800E478FFF6D8FD7C
:200815006040F82582500274FFF582E824F8501ECCCBCAF9E4CC24F85014CBCAF9E4CB24EB
:20083500F8500BCAF9E4CA24F8500379002224086010F8C3EC13FCEB13FBEA13FAE913F99E
:03085500D8F122B5
:200036007900E94400601B7A00900C8E780175A200E493F2A308B8000205A2D9F4DAF275D2
:02005600A2FF07
:20005E007800E84400600A790175A200E4F309D8FC7800E84400600C7900900001E4F0A39E
:04007E00D8FCD9FAD7
:0D002900758121120874E582600302002633
:1C08580020F71430F6148883A88220F507E6A88375830022E280F7E49322E022AF
:040874007582002267
:00000001FF
