:040000000200313297
:01000B0032C2
:0100130032BA
:01001B0032B2
:0100230032AA
:03002B00020100CF
:03008A0002002E43
:03002E0002019636
:20008D0075FFDE75FFAD22758400758E0875840075C80475C90275CA9F75CBAE2275840F4A
:2000AD0075A4FF75A5FF75A6FF75A7FF759CFF759DFF759EFF759FFF75E3402275840F7550
:2000CD008C677EB87F0BEE24FFFCEF34FFFD8C068D07EC4D70F0E58C30E7FB75970122754E
:2000ED00A8A02212008D1200941200AA1200C91200EC22C0E0C082C083C0D0109102800CA9
:20010D00E50990023E93F580D290800CD291E50890023E93F580C290D0D0D083D082D0E0AF
:20012D0032AE82AF83C291C290C3EE9464EF9400502E750A0A750B008E828F83C007C00617
:20014D001201EDAC82D006D0078C09750A0A750B008E828F831201C4AE82AF838E088003A5
:20016D0075804F22AE82AF835389FC438901EE4F6016C28CC28D758A58758C9ED28C308DA4
:20018D00FD1EBEFF011F80E6221200F07584007E007F008E828F83C007C00612012E90005A
:1701AD00FA120171D006D0070EBE00010FC3EE9464EF940040DD22C9
:0C023E007E306D79335B5F707F7B00FFCA
:2001C4007A10E4FBFCE58225E0F582E58333F583EB33FBEC33FCEB950AF5F0EC950B40064B
:0901E400FCABF0438201DADD22DC
:06006000E478FFF6D8FD74
:20003E007900E94400601B7A0090024A780175A200E493F2A308B8000205A2D9F4DAF27518
:02005E00A2FFFF
:2001ED00E50A450B60467A01E50A25E0F50AE50B334012F50BE582950AE583950B40030ACF
:20020D0080E6C3E50B13F50BE50A13F50AC3E582950AF5F0E583950B4005F58385F082C377
:0D022D00E50B13F50BE50A13F50ADAE122E3
:200066007800E84400600A790175A200E4F309D8FC7800E84400600C7900900001E4F0A396
:04008600D8FCD9FACF
:0D00310075810B12023AE582600302002E79
:04023A0075820022A7
:00000001FF
