:0400000002002132A7
:01000B0032C2
:0100130032BA
:03001B000203EAF3
:0C007A00E4F509F50AF50BF50C02001E78
:03001E000204BE1B
:2000860075FFDE75FFAD22758400758805758991758E1875840075C80475C90275CA3D75B5
:2000A600CB5D2275840F75A40275E21075E3402275840F758C677EB87F0BEE24FFFCEF344C
:2000C600FFFD8C068D07EC4D70F0E58C30E7FB7597012275A8882212008612008D1200A9F4
:2000E6001200B61200D922AE82AF835389FC4389018E048F051EBEFF011FEC4D6011C28C05
:20010600C28D758A58758C9ED28C208DE480FB22AE82AF83C28CC28D5389FC438902758A64
:20012600E7758CE7D28C8E048F051EBEFF011FEC4D6005108DF080FB22D2A3A20192A0A2B7
:2001460001B392A1A20092A200000000D2A4000000000000000075840F85C8827584000096
:20016600000000C2A400000000000000000000000022AF82C200A2039201C00712013FE5C8
:2001860082D00720E7EEC2A3A20392A0A203B392A1A20292A275840F8FC875840000000014
:2001A60000D2A4000000000000000000000000C2A475840F75C8FF75840000000000000020
:2001C60000000000000022C2A4D2A5D2A0D2A175840F75C8FF758400C200C20112013FE53C
:2001E6008220E4F4C200D20112013FE58220E4F4C202C20375823F120178C202D20375825F
:200206003F120178C202C203758240120178C202C2037582B8120178C202C2037582C012AE
:200226000178C202D203758240120178C202D2037582B8120178C202D2037582C012017836
:2002460022AF8253073F74404FF582C202A204920312017822AF8253070774B84FF582C240
:2002660002A2059203120178227F00A20692058F82C00712025BA2069204758200120247F8
:20028600D0077E00D202A2069203758200C007C006120178D006D0070EBE400040E60FBF36
:2002A600080040C722E582FF6030EF24F7402BEF14FEC2058E82C00612025BC204758200D2
:2002C600120247D006D2058E8212025BD20475820012024775080002035D74F825084004AD
:2002E6007E0080027E017D008F037C00EB24E0F514EC34FFF515900005C007C006C00512D4
:200306000B45AB82AC83D005D006EB24B3FBEC340DFCED2BF582E43CF583E493FCEE24FFEF
:200326009207D202A20792038C82C006C005120178D005D006D0070DBD050040AB7F00D25B
:2003460002A2079203758200C007120178D0070FBF030040EA050822E4F509F50AF50BF537
:200366000CC28BD28E308BFDC28EC28FAF8D7E00AC8B7D00EC2EF582ED3FF5838E8B8E8D8E
:20038600120C04AC82AD83AEF0FF7420C0E074BCC0E074BEC0E0744BC0E08C828D838EF069
:2003A600EF120C84AC82AD83AEF0FFE58124FCF581C004C005C006C007850982850A8385F2
:2003C6000BF0E50C120B6285820985830A85F00BF50CE58124FCF581850982850A83850B5B
:2003E600F0E50C22C022C0E0C0F0C082C083C007C006C005C004C003C002C001C000C0D091
:2004060075D000C28F7477C0E074CCC0E0742BC0E0743BC0E0850982850A83850BF0E50CB4
:20042600120B6285820985830A85F00BF50CE58124FCF581E4C0E0C0E07480C0E0743FC06D
:20044600E0850982850A83850BF0E50C120B15AF82E58124FCF581EF6002D28BD0D0D000A6
:20046600D001D002D003D004D005D006D007D083D082D0F0D0E0D02232D28190000A120171
:2004860016C28112035EAC82AD83AEF0FFC004C005C006C00790240075F07474491209CE46
:2004A600AC82AD83AEF0FFE58124FCF5818C828D838EF0EF120C10221200DD758400120169
:2004C600CDC20612026FD20612026F12047FAE82AF83C007C006C006C0077493C0E0740F68
:2004E600C0E012054DE58124FCF581D006D00775143A7515008E828F83120524AE82AF833D
:1E050600C006C00774A0C0E0740FC0E012054DE58124FCF58190012C1200ED80AE2207
:200DB300000000000000005F00000007000700147F147F14242A7F2A1223130864623649ED
:200DD3005522500005030000001C2241000041221C00082A1C2A0808083E080800503000D5
:200DF300000808080808003030000020100804023E5149453E00427F40004261514946211A
:200E130041454B311814127F1027454545393C4A4949300171090503364949493606494917
:200E3300291E0036360000005636000000081422411414141414412214080002015109069B
:200E5300324979413E7E1111117E7F494949363E414141227F4141221C7F494949417F09C8
:200E73000901013E414151327F0808087F00417F41002040413F017F081422417F404040DC
:200E9300407F0204027F7F0408107F3E4141413E7F090909063E4151215E7F09192946465B
:200EB3004949493101017F01013F4040403F1F2040201F7F2018207F6314081463030478C9
:200ED3000403615149454300007F4141020408102041417F000004020102044040404040E8
:200EF300000102040020545454787F484444383844444420384444487F3854545418087E40
:200F1300090102081454543C7F0804047800447D40002040443D00007F10284400417F40CE
:200F3300007C041804787C0804047838444444387C14141408081414187C7C0804040848EA
:200F530054545420043F4440203C4040207C1C2040201C3C4030403C44281028440C5050AF
:200F7300503C4464544C44000836410000007F0000004136080008082A1C08081C2A08080D
:170F9300012070756C736F733D253864000220434D3D2531326400A7
:200524007A10E4FBFCE58225E0F582E58333F583EB33FBEC33FCEB9514F5F0EC95154006D3
:09054400FCABF0438201DADD2278
:20054D00C013858113E51324FDF8868318868218E493A3B42577C208C209C20AC20BC20CEA
:20056D00C20D790D7700C20EE493A324C64017240A50157005B50D02D20DD20CFAE775F0A8
:20058D000AA42AF780E2240A2430B46C04D20880D7B46804D20980D0B473030205E5B464CD
:2005AD00061208BF020641B475061208BF020661B4630518E6188017B47803020620B4665B
:2005CD0003020775B42E06790E7700809B60061209B102055D0209CBC083C08286F0188687
:2005ED008318868218300C19C20DC082C083120D476007A3150DE50D70F412099CD083D0C8
:20060D0082120D476006A31209B180F5D082D08302055D12063820090C120638300806126D
:20062D0006381206381209C302055DE61209A1E6180209A2ED30E71CD20BE9F42401F92078
:20064D000912EAF43400FA30080AEBF43400FBECF43400FC200910300808EB7024EC702191
:20066D00C208EA701CD209E97017200E14300C09E50D6005150D12099C74301209B10205B4
:20068D005DC082C0831208D9300C60790A30081DEB54F0703619EB540F703019EA54F07071
:2006AD002A19EA540F702419EF54F0701E790520090BEF540F701419EE54F0700E7903EE74
:2006CD00540F700719ED54F0700119E50DA20B994019F50DC003C002C007C006C0051209DA
:2006ED009CD005D006D007D002D003300B19C003C002C007C006C005742D1209B1D005D0ED
:20070D0006D007D002D00320094030082CC005C006C0078A82EBF5831209A1E5831209A2DB
:20072D00E5821209A1E5821209A2D0E0F5821209A1E582D083D08280058D828E83EF1209C7
:20074D00A2E5831209A1E58380038D82EE1209A2E5821209A1E5821209A21209C3D083D0D9
:20076D0082300E012202055D300C0EE50DD3950EF50D5028750D008023E6547FFA18860380
:20078D0008AE82AF839011767D07E4932BA3E4933A5003A3DDF48D0E8E828F83C0001208F3
:2007AD00A1C082C083EFB47E02801940112482FDC3EA33FAEB33FBEC33FCDDF48006F424D9
:2007CD007F120A9F75F01BE4F8FFFEFD90110AE933F9EA33FAEB33FBEC33FC5017E4932D66
:2007ED00D4FD7401933ED4FE7402933FD4FF74039338D4F8A3A3A3A3D5F0D4E47C50FBFA10
:20080D00F9E50E232354FC8883120A9FED29D4F512EE3AD4F511EF3BD4F510E5833CD4F520
:20082D000F92D5D083D082D0001208A1C000C3749E9F5005D000020575C082120A9FD082E1
:20084D0030D50FE92401F9E43AFAE43BFBE43CFC40E2D20E120661200C0CE50E60081208FA
:20086D00917003D50EF4E50E6015742E1209B17800D20A08E81208911209A2E8B50EF4D09F
:20088D000002055D14C31392D5240FF9E720D501C4540F22E618F9E618FC33E933920BFF68
:2008AD006003430480E618FBE618FA7900C209D20822E6F9FD18200912AA01E6F9183008C7
:2008CD000AAC02AB01E6FA18E6F91822E975F06484FE740AC5F084C445F0FD30090122EA6F
:2008ED00540FF9900FAA932DD4FDE94410933ED4FEEAC4540FF9900FCA932DD4FDE9441094
:20090D00933ED4FEE94420933400D4FF20080122EB540FF9900FFA932DD4FDE94410933E76
:20092D00D4FEE94420933FD4FFE43400FAEBC4540FF990102A932DD4FDE94410933ED4FE8E
:20094D00E94420933FD4FFE94430933AD4FAEC540FF990106A7B0012096FECC4540FF990AD
:20096D0010BA932DD4FDE94410933ED4FEE94420933FD4FFE94430933AD4FAE94440933B0A
:20098D00D4FB227420300D0274301209B1150DE50D70F022C4540F7003300A19D20A249003
:2009AD00D43440D4C083C082C000F5821202ABD000D082D08322200AFC74300209B1D01393
:0109CD002207
:200FAA0000561268248036924804601672288440000205071012151720232528303335380F
:200FCA00009692888480767268646056524844400040812263044586276809509132731484
:200FEA00000000010102020203030404040505060036720844801652882460963268044061
:20100A000055106621763287429853086419753000061319263239455258657278859198A5
:20102A0000765228048056320884603612886440008571574328140086715743291400862A
:20104A00000409141924293438434853586368720001020304050607080910111213141584
:20106A0000163248648096122844607692082440007244168860320577492193653810827C
:20108A000077553310886644219977543210886500163350678300173450678401183451AA
:2010AA000000000000000101010101010202020200561268248036924804601672288440BC
:2010CA000054096318722781369145005409631800438730741761044891357922660953DB
:2010EA000068360573421079471584522189582600020508101316182124262932343740DA
:20110A000000005000000025000050120000250600501203002556015012780025063900A4
:20112A001253190056760900288804001444020007220100046100005230000026150000F8
:20114A006307000081030000910100009500000048000000240000001200000006000000EC
:1A116A000300000001000000010000007DC5DDC334C2E0BE38BD86BBE4B91D
:2009CE00120A71BC0003020C3CEF60FA30D502B2D1E583B4FF03020C52E582B4FF03020CF7
:2009EE0052258340072482400B020C3C2483145003020C52F582EA8DF0A4A8F0EA8EF0A4D9
:200A0E0028F8E435F0F9EB8DF0A428E935F0F9E433CA8FF0A429F9EA35F0FAEBF88EF0A437
:200A2E0029F9EA35F0FAE433FBEC8DF0A429F9EA35F0FAE43BFBE88FF0A42AFAEB35F0FBDF
:200A4E00E433CCFD8EF0A42AFAEB35F0FBE43CFCED8FF0A42BFBEC35F0FC20E703120AE2F0
:030A6E00020C1B5C
:200A7100AA82AB83A2F73392D1F5826002D2F7ACF0E58124F9F8E6FD08E6FE0886F008E6E8
:0E0A9100A2F73392D5F5836002D2F7AFF022C0
:06005000E478FFF6D8FD84
:200A9F006040F82582500274FFF582E824F8501ECCCBCAF9E4CC24F85014CBCAF9E4CB245F
:200ABF00F8500BCAF9E4CA24F8500379002224086010F8C3EC13FCEB13FBEA13FAE913F912
:030ADF00D8F12229
:200AE2007804EC7011E58224F8500AF582E4C9CACBFCD8EF22EC7820058220E713D5820113
:130B020022C3E933F9EA33FAEB33FBEC33FCD8EA15822220
:20002E007900E94400601B7A00901184780175A200E493F2A308B8000205A2D9F4DAF275DF
:02004E00A2FF0F
:200B1500FFA8811818120BD9D2D133E6400730E70B7582012220E70675820022C2D1120B5D
:100B3500BBE97003F5822230D101B3E433F582229B
:1D0B4500E5828514F0A4C582C0F08515F0A4D0F025F0C5838514F0A42583F583224E
:200056007800E84400600A790175A200E4F309D8FC7800E84400600C7900900001E4F0A3A6
:04007600D8FCD9FADF
:200B6200120A717900E583B58202800D5003120C6AE583C39582120A9FE5D0C465D020E1B8
:200B820017EA2DFAEB3EFBEC3FFC50097401120A9FEC4480FC020C1BC3EA9DFAEB9EFBECCE
:190BA2009FFC500FC3E499F9E49AFAE49BFBE49CFCB2D1120AE2020C1BEF
:200BBB007901AA82E68F82B5821318E6B5F00E18E6B5830918E68A82B58202790022B48031
:200BDB000FE5F0700AE5837006E58270027F00EFB6801518B6001018B6000B18B600060899
:090BFB000808760022080808220F
:0C0C0400E4AC83AB82FAF9748E020D6C34
:0B0C10007F8E120D7CF58385F08222A0
:200C1B00B98003EA13B34010EA2401FAE43BFBE43CFC50047C800582BC000EBB000BBA001D
:200C3B0008E4F5F0F583F58222A2D1E582138CF092F78B838A8222E4F583F58275F080F4DD
:0F0C5B00A2D11322E4F583F58275F0C0747F22D5
:1A0C6A00E582C583F582A2D133A2D592D11392D5ECCFFCEBCEFBEACDFA2212
:200C8400120A7130D502B2D1BF0009BC0003020C5F020C52BC0003020C3CE583B4FF0BE5D1
:200CA40082B4FF03020C5F020C3CE582B4FF03020C52C395835007247F400B020C3C2480B6
:200CC400145003020C52F582C3ED9AEE9BEF9C40111582C3EA33F9EB33FAEC33FBE433FC6E
:200CE4008005E4CCCBCAF9C08275F019C3E99DEA9EEB9FEC9400D5F002802D400EE99DF951
:200D0400EA9EFAEB9FFBEC9400FCC3B3E833F8E58233F582E58333F583C3E933F9EA33FAB0
:200D2400EB33FBEC33FC80C4B3E4F938FAE43582FBE43583FCD082500405827C80120AE220
:030D4400020C336B
:0D002100758122120D76E582600302001E3B
:1C0D470020F71430F6148883A88220F507E6A88375830022E280F7E49322E022BB
:130D6300FCABF0AA83A982749EC2D1F582120AE2020C1B4B
:040D76007582002260
:200D7A007F9E120DA130D103020C3CC3EF9582500974FFF5F0F583F582227900120A9F89E6
:070D9A00828A838BF0EC223A
:120DA100AA82AB83A2F73392D1F5826002D2F7ACF02257
:00000001FF
