:03000000020006F5
:03005F0002000399
:030003000200D127
:2000620075FFDE75FFAD22758400758E082275840F75A4FF75E3402275840F758C677EB843
:200082007F0BEE24FFFCEF34FFFD8C068D07EC4D70F0E58C30E7FB759701221200621200B1
:2000A2006912007012007A22AE82AF83C28CC28D5389FC438902758AE7758CE7D28CEE4F97
:2000C200600C108D0280FB1EBEFF011F80F02212009D758400758000D28090C3501200AABD
:0B00E200C28090C3501200AA80EE22E2
:06003500E478FFF6D8FD9F
:200013007900E94400601B7A009000F1780175A200E493F2A308B8000205A2D9F4DAF2759E
:02003300A2FF2A
:20003B007800E84400600A790175A200E4F309D8FC7800E84400600C7900900001E4F0A3C1
:04005B00D8FCD9FAFA
:0D0006007581071200EDE582600302000322
:0400ED0075820022F6
:00000001FF
