:03000000020006F5
:03005F0002000399
:0300030002039B5A
:2000620075FFDE75FFAD22758400758805758991758E1875840075C80475C90275CA3D75D9
:20008200CB5D22758400759A4075F801759D7C2275840F75A41575E10675E3402275840F5A
:2000A200758C677EB87F0BEE24FFFCEF34FFFD8C068D07EC4D70F0E58C30E7FB7597012279
:2000C20075A8882212006212006912008512009212009F1200C222AE82AF835389FC438980
:2000E200018E048F051EBEFF011FEC4D6011C28CC28D758A58758C9ED28C208DE480FB2213
:20010200AE82AF83C28CC28D5389FC438902758AE7758CE7D28C8E048F051EBEFF011FECFF
:200122004D6005108DF080FB22D2A3A20192A0A201B392A1A20092A200000000D2A40000C2
:2001420000000000000075840F85C88275840000000000C2A4000000000000000000000067
:200162000022AF82C200A2039201C00712012BE582D00720E7EEC2A3A20392A0A203B392D2
:20018200A1A20292A275840F8FC875840000000000D2A4000000000000000000000000C254
:2001A200A475840F75C8FF758400D2A300000000000000000000000022C2A4D2A5D2A0D2A4
:2001C200A175840F75C8FF758400C200C20112012BE58220E4F4C200D20112012BE58220C3
:2001E200E4F4C202C20375823F120164C202D20375823F120164C202C20375824012016472
:20020200C202C2037582B8120164C202C2037582C0120164C202D203758240120164C2026B
:20022200D2037582B8120164C202D2037582C012016422AF8253073F74404FF582C202A22E
:2002420004920312016422AF8253070774B84FF582C202A2059203120164227F00A2069294
:20026200058F82C007120249A2069204758200120235D0077E00D202A2069203758200C0A7
:2002820007C006120164D006D0070EBE400040E60FBF080040C722E582FF6030EF24F740FA
:2002A2002BEF14FEC2058E82C006120249C204758200120235D006D2058E82120249D20420
:2002C20075820012023575080002034B74F8250840047E0080027E017D008F037C00EB2419
:2002E200E0F510EC34FFF511900005C007C006C005120913AB82AC83D005D006EB2450FB7C
:20030200EC3409FCED2BF582E43CF583E493FCEE24FF9207D202A20792038C82C006C005C7
:20032200120164D005D006D0070DBD050040AB7F00D202A2079203758200C007120164D072
:20034200070FBF030040EA050822AE82AF83C2A3759B0330F9FD8F9B30F9FD8E9B30F9FDCB
:20036200759B0030F9FDC2FF10FF0280FBD2A3859B8222AE82AF83C2A3759B0230F9FD8F31
:200382009B30F9FD8E9B30F9FD85109B30F9FDC2FF10FF0280FBD2A3221200C6758400122E
:2003A20001BBC20612025DD20612025D7E007F007C007D007510AA8C828D83C007C006C06D
:2003C20005C004120375D004D0058C828D83C005C00412034CAB82D004D005C005C004C0F8
:2003E20003C004C0057430C0E0740BC0E012044FE58124FCF581D0038B017A00C003C0014E
:20040200C002743BC0E0740BC0E012044FE58124FCF581D003D004D005D006D007BBAA02B9
:200422008017C006C0077447C0E0740BC0E012044FE58124FCF58180110CBC00010D8C06C2
:0D0442008D0774E02D40030203B680FE22FA
:20095000000000000000005F00000007000700147F147F14242A7F2A122313086462364954
:200970005522500005030000001C2241000041221C00082A1C2A0808083E0808005030003C
:20099000000808080808003030000020100804023E5149453E00427F400042615149462181
:2009B00041454B311814127F1027454545393C4A494930017109050336494949360649497F
:2009D000291E00363600000056360000000814224114141414144122140800020151090603
:2009F000324979413E7E1111117E7F494949363E414141227F4141221C7F494949417F0930
:200A10000901013E414151327F0808087F00417F41002040413F017F081422417F40404043
:200A3000407F0204027F7F0408107F3E4141413E7F090909063E4151215E7F0919294646C2
:200A50004949493101017F01013F4040403F1F2040201F7F2018207F631408146303047830
:200A70000403615149454300007F4141020408102041417F0000040201020440404040404F
:200A9000000102040020545454787F484444383844444420384444487F3854545418087EA7
:200AB000090102081454543C7F0804047800447D40002040443D00007F10284400417F4036
:200AD000007C041804787C0804047838444444387C14141408081414187C7C080404084852
:200AF00054545420043F4440203C4040207C1C2040201C3C4030403C44281028440C505017
:200B1000503C4464544C44000836410000007F0000004136080008082A1C08081C2A080874
:200B30000120456E64203D2025640002204461646F203D2025640003204572726F203D208F
:030B500025640019
:20044F00C00F85810FE50F24FDF8868318868218E493A3B42577C208C209C20AC20BC20CF5
:20046F00C20D79097700C20EE493A324C64017240A50157005B50902D20DD20CFAE775F0AF
:20048F000AA42AF780E2240A2430B46C04D20880D7B46804D20980D0B473030204E7B464CB
:2004AF00061207C1020543B475061207C1020563B4630518E6188017B47803020522B46655
:2004CF0003020677B42E06790A7700809B60061208B302045F0208CDC083C08286F0188686
:2004EF008318868218300C19C20DC082C0831209306007A31509E50970F412089ED083D0E9
:20050F00821209306006A31208B380F5D082D08302045F12053A20090C12053A3008061283
:20052F00053A12053A1208C502045FE61208A3E6180208A4ED30E71CD20BE9F42401F92071
:20054F000912EAF43400FA30080AEBF43400FBECF43400FC200910300808EB7024EC702190
:20056F00C208EA701CD209E97017200E14300C09E5096005150912089E74301208B30204BA
:20058F005FC082C0831207DB300C60790A30081DEB54F0703619EB540F703019EA54F0706D
:2005AF002A19EA540F702419EF54F0701E790520090BEF540F701419EE54F0700E7903EE73
:2005CF00540F700719ED54F0700119E509A20B994019F509C003C002C007C006C0051208E2
:2005EF009ED005D006D007D002D003300B19C003C002C007C006C005742D1208B3D005D0E9
:20060F0006D007D002D00320094030082CC005C006C0078A82EBF5831208A3E5831208A4D8
:20062F00E5821208A3E5821208A4D0E0F5821208A3E582D083D08280058D828E83EF1208C4
:20064F00A4E5831208A3E58380038D82EE1208A4E5821208A3E5821208A41208C5D083D0D1
:20066F0082300E012202045F300C0EE509D3950AF50950287509008023E6547FFA1886038E
:20068F0008AE82AF83900D1F7D07E4932BA3E4933A5003A3DDF48D0A8E828F83C000120752
:2006AF00A3C082C083EFB47E02801940112482FDC3EA33FAEB33FBEC33FCDDF48006F424D6
:2006CF007F1208D075F01BE4F8FFFEFD900CB3E933F9EA33FAEB33FBEC33FC5017E4932D92
:2006EF00D4FD7401933ED4FE7402933FD4FF74039338D4F8A3A3A3A3D5F0D4E47C50FBFA0F
:20070F00F9E50A232354FC88831208D0ED29D4F50EEE3AD4F50DEF3BD4F50CE5833CD4F500
:20072F000B92D5D083D082D0001207A3C000C3749E9F5005D000020477C0821208D0D082B3
:20074F0030D50FE92401F9E43AFAE43BFBE43CFC40E2D20E120563200C0CE50A60081207FD
:20076F00937003D50AF4E50A6015742E1208B37800D20A08E81207931208A4E8B50AF4D0A5
:20078F000002045F14C31392D5240BF9E720D501C4540F22E618F9E618FC33E933920BFF6A
:2007AF006003430480E618FBE618FA7900C209D20822E6F9FD18200912AA01E6F9183008C6
:2007CF000AAC02AB01E6FA18E6F91822E975F06484FE740AC5F084C445F0FD30090122EA6E
:2007EF00540FF9900B53932DD4FDE94410933ED4FEEAC4540FF9900B73932DD4FDE9441049
:20080F00933ED4FEE94420933400D4FF20080122EB540FF9900BA3932DD4FDE94410933ED0
:20082F00D4FEE94420933FD4FFE43400FAEBC4540FF9900BD3932DD4FDE94410933ED4FEE9
:20084F00E94420933FD4FFE94430933AD4FAEC540FF9900C137B00120871ECC4540FF99006
:20086F000C63932DD4FDE94410933ED4FEE94420933FD4FFE94430933AD4FAE94440933B64
:20088F00D4FB227420300D0274301208B31509E50970F022C4540F7003300A19D20A249009
:2008AF00D43440D4C083C082C000F582120299D000D082D08322200AFC74300208B3D00FA7
:0108CF002206
:200B530000561268248036924804601672288440000205071012151720232528303335386A
:200B73000096928884807672686460565248444000408122630445862768095091327314DF
:200B93000000000101020202030304040405050600367208448016528824609632680440BC
:200BB300005510662176328742985308641975300006131926323945525865727885919801
:200BD300007652280480563208846036128864400085715743281400867157432914008686
:200BF3000004091419242934384348535863687200010203040506070809101112131415E0
:200C13000016324864809612284460769208244000724416886032057749219365381082D7
:200C3300007755331088664421997754321088650016335067830017345067840118345105
:200C5300000000000000010101010101020202020056126824803692480460167228844017
:200C7300005409631872278136914500540963180043873074176104489135792266095336
:200C9300006836057342107947158452218958260002050810131618212426293234374035
:200CB300000000500000002500005012000025060050120300255601501278002506390000
:200CD300125319005676090028880400144402000722010004610000523000002615000054
:200CF300630700008103000091010000950000004800000024000000120000000600000048
:1A0D13000300000001000000010000007DC5DDC334C2E0BE38BD86BBE4B978
:06003500E478FFF6D8FD9F
:2008D0006040F82582500274FFF582E824F8501ECCCBCAF9E4CC24F85014CBCAF9E4CB2430
:2008F000F8500BCAF9E4CA24F8500379002224086010F8C3EC13FCEB13FBEA13FAE913F9E3
:03091000D8F122F9
:200013007900E94400601B7A00900D2D780175A200E493F2A308B8000205A2D9F4DAF27555
:02003300A2FF2A
:1D091300E5828510F0A4C582C0F08511F0A4D0F025F0C5838510F0A42583F583228E
:20003B007800E84400600A790175A200E4F309D8FC7800E84400600C7900900001E4F0A3C1
:04005B00D8FCD9FAFA
:0D00060075812112094CE5826003020003A0
:1C09300020F71430F6148883A88220F507E6A88375830022E280F7E49322E022D6
:04094C00758200228E
:00000001FF
